{
  "_format": "hh-sol-artifact-1",
  "contractName": "OneToken",
  "sourceName": "contracts/OneToken.sol",
  "abi": [
    {
      "inputs": [
        {
          "internalType": "uint256",
          "name": "total",
          "type": "uint256"
        },
        {
          "internalType": "address",
          "name": "owner",
          "type": "address"
        }
      ],
      "stateMutability": "nonpayable",
      "type": "constructor"
    },
    {
      "anonymous": false,
      "inputs": [
        {
          "indexed": true,
          "internalType": "address",
          "name": "owner",
          "type": "address"
        },
        {
          "indexed": true,
          "internalType": "address",
          "name": "spender",
          "type": "address"
        },
        {
          "indexed": false,
          "internalType": "uint256",
          "name": "value",
          "type": "uint256"
        }
      ],
      "name": "Approval",
      "type": "event"
    },
    {
      "anonymous": false,
      "inputs": [
        {
          "indexed": true,
          "internalType": "address",
          "name": "from",
          "type": "address"
        },
        {
          "indexed": true,
          "internalType": "address",
          "name": "to",
          "type": "address"
        },
        {
          "indexed": false,
          "internalType": "uint256",
          "name": "value",
          "type": "uint256"
        }
      ],
      "name": "Transfer",
      "type": "event"
    },
    {
      "inputs": [
        {
          "internalType": "address",
          "name": "owner",
          "type": "address"
        },
        {
          "internalType": "address",
          "name": "spender",
          "type": "address"
        }
      ],
      "name": "allowance",
      "outputs": [
        {
          "internalType": "uint256",
          "name": "",
          "type": "uint256"
        }
      ],
      "stateMutability": "view",
      "type": "function"
    },
    {
      "inputs": [
        {
          "internalType": "address",
          "name": "spender",
          "type": "address"
        },
        {
          "internalType": "uint256",
          "name": "amount",
          "type": "uint256"
        }
      ],
      "name": "approve",
      "outputs": [
        {
          "internalType": "bool",
          "name": "",
          "type": "bool"
        }
      ],
      "stateMutability": "nonpayable",
      "type": "function"
    },
    {
      "inputs": [
        {
          "internalType": "address",
          "name": "owner",
          "type": "address"
        }
      ],
      "name": "balanceOf",
      "outputs": [
        {
          "internalType": "uint256",
          "name": "",
          "type": "uint256"
        }
      ],
      "stateMutability": "view",
      "type": "function"
    },
    {
      "inputs": [
        {
          "internalType": "address",
          "name": "account",
          "type": "address"
        },
        {
          "internalType": "uint256",
          "name": "amount",
          "type": "uint256"
        }
      ],
      "name": "burn",
      "outputs": [],
      "stateMutability": "nonpayable",
      "type": "function"
    },
    {
      "inputs": [],
      "name": "decimals",
      "outputs": [
        {
          "internalType": "uint8",
          "name": "",
          "type": "uint8"
        }
      ],
      "stateMutability": "view",
      "type": "function"
    },
    {
      "inputs": [
        {
          "internalType": "address",
          "name": "account",
          "type": "address"
        },
        {
          "internalType": "uint256",
          "name": "amount",
          "type": "uint256"
        }
      ],
      "name": "mint",
      "outputs": [],
      "stateMutability": "nonpayable",
      "type": "function"
    },
    {
      "inputs": [],
      "name": "name",
      "outputs": [
        {
          "internalType": "string",
          "name": "",
          "type": "string"
        }
      ],
      "stateMutability": "view",
      "type": "function"
    },
    {
      "inputs": [],
      "name": "symbol",
      "outputs": [
        {
          "internalType": "string",
          "name": "",
          "type": "string"
        }
      ],
      "stateMutability": "view",
      "type": "function"
    },
    {
      "inputs": [],
      "name": "totalSupply",
      "outputs": [
        {
          "internalType": "uint256",
          "name": "",
          "type": "uint256"
        }
      ],
      "stateMutability": "view",
      "type": "function"
    },
    {
      "inputs": [
        {
          "internalType": "address",
          "name": "to",
          "type": "address"
        },
        {
          "internalType": "uint256",
          "name": "amount",
          "type": "uint256"
        }
      ],
      "name": "transfer",
      "outputs": [
        {
          "internalType": "bool",
          "name": "",
          "type": "bool"
        }
      ],
      "stateMutability": "nonpayable",
      "type": "function"
    },
    {
      "inputs": [
        {
          "internalType": "address",
          "name": "from",
          "type": "address"
        },
        {
          "internalType": "address",
          "name": "to",
          "type": "address"
        },
        {
          "internalType": "uint256",
          "name": "amount",
          "type": "uint256"
        }
      ],
      "name": "transferFrom",
      "outputs": [
        {
          "internalType": "bool",
          "name": "",
          "type": "bool"
        }
      ],
      "stateMutability": "nonpayable",
      "type": "function"
    }
  ],
  "bytecode": "0x60c0604052600960808190526827b732902a37b5b2b760b91b60a09081526200002c916003919062000116565b5060408051808201909152600380825262373a3760e91b6020909201918252620000599160049162000116565b506005805460ff191660061790553480156200007457600080fd5b5060405162000cae38038062000cae8339810160408190526200009791620001bc565b60028290556001600160a01b038116620000c357336000908152602081905260409020829055620000df565b6001600160a01b03811660009081526020819052604090208290555b505060058054610100600160a81b03191633610100810291909117909155600680546001600160a01b031916909117905562000236565b8280546200012490620001f9565b90600052602060002090601f01602090048101928262000148576000855562000193565b82601f106200016357805160ff191683800117855562000193565b8280016001018555821562000193579182015b828111156200019357825182559160200191906001019062000176565b50620001a1929150620001a5565b5090565b5b80821115620001a15760008155600101620001a6565b60008060408385031215620001cf578182fd5b825160208401519092506001600160a01b0381168114620001ee578182fd5b809150509250929050565b600181811c908216806200020e57607f821691505b602082108114156200023057634e487b7160e01b600052602260045260246000fd5b50919050565b610a6880620002466000396000f3fe608060405234801561001057600080fd5b50600436106100b95760003560e01c806340c10f19116100815780639dc29fac1161005b5780639dc29fac14610189578063a9059cbb1461019c578063dd62ed3e146101af57600080fd5b806340c10f191461014357806370a082311461015857806395d89b411461018157600080fd5b806306fdde03146100be578063095ea7b3146100dc57806318160ddd146100ff57806323b872dd14610111578063313ce56714610124575b600080fd5b6100c66101e8565b6040516100d3919061095f565b60405180910390f35b6100ef6100ea3660046108fe565b610276565b60405190151581526020016100d3565b6002545b6040519081526020016100d3565b6100ef61011f3660046108c3565b6102e2565b6005546101319060ff1681565b60405160ff90911681526020016100d3565b6101566101513660046108fe565b610638565b005b610103610166366004610877565b6001600160a01b031660009081526020819052604090205490565b6100c66106e1565b6101566101973660046108fe565b6106ee565b6100ef6101aa3660046108fe565b6107cb565b6101036101bd366004610891565b6001600160a01b03918216600090815260016020908152604080832093909416825291909152205490565b600380546101f5906109e1565b80601f0160208091040260200160405190810160405280929190818152602001828054610221906109e1565b801561026e5780601f106102435761010080835404028352916020019161026e565b820191906000526020600020905b81548152906001019060200180831161025157829003601f168201915b505050505081565b3360008181526001602090815260408083206001600160a01b038716808552925280832085905551919290917f8c5be1e5ebec7d5bd14f71427d1e84f3dd0314c0f7b2291e5b200ac8c7c3b925906102d19086815260200190565b60405180910390a350600192915050565b60006001600160a01b03841661034f5760405162461bcd60e51b815260206004820152602760248201527f7a65726f2061646472657373206e6f7420616c6c6f7765642028616464726573604482015266732066726f6d2960c81b60648201526084015b60405180910390fd5b6001600160a01b0383166103b35760405162461bcd60e51b815260206004820152602560248201527f7a65726f2061646472657373206e6f7420616c6c6f77656420286164647265736044820152647320746f2960d81b6064820152608401610346565b6001600160a01b03841660009081526020819052604090205482111561041b5760405162461bcd60e51b815260206004820152601d60248201527f6e6f7420656e6f7567687420746f6b656e73206f6e2062616c616e63650000006044820152606401610346565b6000821161047c5760405162461bcd60e51b815260206004820152602860248201527f616c6c6f77656420746f207472616e73666572206f6e6c7920706f73697469766044820152671948185b5bdd5b9d60c21b6064820152608401610346565b604051636eb1769f60e11b81526001600160a01b03808616600483015284166024820152309063dd62ed3e9060440160206040518083038186803b1580156104c357600080fd5b505afa1580156104d7573d6000803e3d6000fd5b505050506040513d601f19601f820116820180604052508101906104fb9190610947565b82106105495760405162461bcd60e51b815260206004820152601a60248201527f6e6f7420656e6f7567687420616c6c6f77656420746f6b656e730000000000006044820152606401610346565b6001600160a01b038416600090815260208190526040812080548492906105719084906109ca565b90915550506001600160a01b038085166000908152600160209081526040808320938716835292905290812080548492906105ad9084906109ca565b90915550506001600160a01b038316600090815260208190526040812080548492906105da9084906109b2565b92505081905550826001600160a01b0316846001600160a01b03167fddf252ad1be2c89b69c2b068fc378daa952ba7f163c4a11628f55a4df523b3ef8460405161062691815260200190565b60405180910390a35060019392505050565b60055461010090046001600160a01b031633146106975760405162461bcd60e51b815260206004820152601c60248201527f6d696e7420616c6c6f776564206f6e6c7920666f72206d696e746572000000006044820152606401610346565b6001600160a01b038216600090815260208190526040812080548392906106bf9084906109b2565b9250508190555080600260008282546106d891906109b2565b90915550505050565b600480546101f5906109e1565b6006546001600160a01b031633146107485760405162461bcd60e51b815260206004820152601c60248201527f6275726e20616c6c6f776564206f6e6c7920666f72206275726e6572000000006044820152606401610346565b6001600160a01b03821660009081526020819052604090205481111561078a5760405162461bcd60e51b81526020600482015260006024820152604401610346565b6001600160a01b038216600090815260208190526040812080548392906107b29084906109ca565b9250508190555080600260008282546106d891906109ca565b6040516323b872dd60e01b81523360048201526001600160a01b03831660248201526044810182905260009030906323b872dd90606401602060405180830381600087803b15801561081c57600080fd5b505af1158015610830573d6000803e3d6000fd5b505050506040513d601f19601f820116820180604052508101906108549190610927565b9392505050565b80356001600160a01b038116811461087257600080fd5b919050565b600060208284031215610888578081fd5b6108548261085b565b600080604083850312156108a3578081fd5b6108ac8361085b565b91506108ba6020840161085b565b90509250929050565b6000806000606084860312156108d7578081fd5b6108e08461085b565b92506108ee6020850161085b565b9150604084013590509250925092565b60008060408385031215610910578182fd5b6109198361085b565b946020939093013593505050565b600060208284031215610938578081fd5b81518015158114610854578182fd5b600060208284031215610958578081fd5b5051919050565b6000602080835283518082850152825b8181101561098b5785810183015185820160400152820161096f565b8181111561099c5783604083870101525b50601f01601f1916929092016040019392505050565b600082198211156109c5576109c5610a1c565b500190565b6000828210156109dc576109dc610a1c565b500390565b600181811c908216806109f557607f821691505b60208210811415610a1657634e487b7160e01b600052602260045260246000fd5b50919050565b634e487b7160e01b600052601160045260246000fdfea26469706673582212207f0bfb4df9f99c0f957cf88923ee2f760c5ff57a66f4cf650fb65140cb770bfe64736f6c63430008040033",
  "linkReferences": {},
  "deployedLinkReferences": {}
}