{
  "_format": "hh-sol-artifact-1",
  "contractName": "OneToken",
  "sourceName": "contracts/OneToken.sol",
  "abi": [
    {
      "inputs": [
        {
          "internalType": "uint256",
          "name": "total",
          "type": "uint256"
        },
        {
          "internalType": "address",
          "name": "bank",
          "type": "address"
        }
      ],
      "stateMutability": "nonpayable",
      "type": "constructor"
    },
    {
      "inputs": [
        {
          "internalType": "address",
          "name": "owner",
          "type": "address"
        },
        {
          "internalType": "address",
          "name": "spender",
          "type": "address"
        }
      ],
      "name": "allowance",
      "outputs": [
        {
          "internalType": "uint256",
          "name": "",
          "type": "uint256"
        }
      ],
      "stateMutability": "view",
      "type": "function"
    },
    {
      "inputs": [
        {
          "internalType": "address",
          "name": "spender",
          "type": "address"
        },
        {
          "internalType": "uint256",
          "name": "numberTokens",
          "type": "uint256"
        }
      ],
      "name": "approve",
      "outputs": [
        {
          "internalType": "bool",
          "name": "",
          "type": "bool"
        }
      ],
      "stateMutability": "nonpayable",
      "type": "function"
    },
    {
      "inputs": [
        {
          "internalType": "address",
          "name": "owner",
          "type": "address"
        }
      ],
      "name": "getBalance",
      "outputs": [
        {
          "internalType": "uint256",
          "name": "",
          "type": "uint256"
        }
      ],
      "stateMutability": "view",
      "type": "function"
    },
    {
      "inputs": [],
      "name": "totalSupply",
      "outputs": [
        {
          "internalType": "uint256",
          "name": "",
          "type": "uint256"
        }
      ],
      "stateMutability": "view",
      "type": "function"
    },
    {
      "inputs": [
        {
          "internalType": "address",
          "name": "to",
          "type": "address"
        },
        {
          "internalType": "uint256",
          "name": "numberTokens",
          "type": "uint256"
        }
      ],
      "name": "transfer",
      "outputs": [
        {
          "internalType": "bool",
          "name": "",
          "type": "bool"
        }
      ],
      "stateMutability": "nonpayable",
      "type": "function"
    },
    {
      "inputs": [
        {
          "internalType": "address",
          "name": "from",
          "type": "address"
        },
        {
          "internalType": "address",
          "name": "to",
          "type": "address"
        },
        {
          "internalType": "uint256",
          "name": "numberTokens",
          "type": "uint256"
        }
      ],
      "name": "transferFrom",
      "outputs": [
        {
          "internalType": "bool",
          "name": "",
          "type": "bool"
        }
      ],
      "stateMutability": "nonpayable",
      "type": "function"
    }
  ],
  "bytecode": "0x608060405234801561001057600080fd5b506040516109613803806109618339818101604052810190610032919061012b565b81600281905550600073ffffffffffffffffffffffffffffffffffffffff168173ffffffffffffffffffffffffffffffffffffffff1614156100b657816000803373ffffffffffffffffffffffffffffffffffffffff1673ffffffffffffffffffffffffffffffffffffffff168152602001908152602001600020819055506100fa565b816000808373ffffffffffffffffffffffffffffffffffffffff1673ffffffffffffffffffffffffffffffffffffffff168152602001908152602001600020819055505b50506101d1565b600081519050610110816101a3565b92915050565b600081519050610125816101ba565b92915050565b6000806040838503121561013e57600080fd5b600061014c85828601610116565b925050602061015d85828601610101565b9150509250929050565b600061017282610179565b9050919050565b600073ffffffffffffffffffffffffffffffffffffffff82169050919050565b6000819050919050565b6101ac81610167565b81146101b757600080fd5b50565b6101c381610199565b81146101ce57600080fd5b50565b610781806101e06000396000f3fe608060405234801561001057600080fd5b50600436106100625760003560e01c8063095ea7b31461006757806318160ddd1461009757806323b872dd146100b5578063a9059cbb146100e5578063dd62ed3e14610115578063f8b2cb4f14610145575b600080fd5b610081600480360381019061007c919061058c565b610175565b60405161008e91906105e6565b60405180910390f35b61009f610214565b6040516100ac9190610601565b60405180910390f35b6100cf60048036038101906100ca919061053d565b61021e565b6040516100dc91906105e6565b60405180910390f35b6100ff60048036038101906100fa919061058c565b6103ca565b60405161010c91906105e6565b60405180910390f35b61012f600480360381019061012a9190610501565b6103df565b60405161013c9190610601565b60405180910390f35b61015f600480360381019061015a91906104d8565b610466565b60405161016c9190610601565b60405180910390f35b600081600160003373ffffffffffffffffffffffffffffffffffffffff1673ffffffffffffffffffffffffffffffffffffffff16815260200190815260200160002060008573ffffffffffffffffffffffffffffffffffffffff1673ffffffffffffffffffffffffffffffffffffffff1681526020019081526020016000206000828254610203919061061c565b925050819055506001905092915050565b6000600254905090565b60008184816000808373ffffffffffffffffffffffffffffffffffffffff1673ffffffffffffffffffffffffffffffffffffffff16815260200190815260200160002054106103c15785858561027483836103df565b8110156103bd57866000808b73ffffffffffffffffffffffffffffffffffffffff1673ffffffffffffffffffffffffffffffffffffffff16815260200190815260200160002060008282546102c99190610672565b9250508190555086600160008b73ffffffffffffffffffffffffffffffffffffffff1673ffffffffffffffffffffffffffffffffffffffff16815260200190815260200160002060008a73ffffffffffffffffffffffffffffffffffffffff1673ffffffffffffffffffffffffffffffffffffffff168152602001908152602001600020600082825461035c9190610672565b92505081905550866000808a73ffffffffffffffffffffffffffffffffffffffff1673ffffffffffffffffffffffffffffffffffffffff16815260200190815260200160002060008282546103b1919061061c565b92505081905550600195505b5050505b50509392505050565b60006103d733848461021e565b905092915050565b6000600160008473ffffffffffffffffffffffffffffffffffffffff1673ffffffffffffffffffffffffffffffffffffffff16815260200190815260200160002060008373ffffffffffffffffffffffffffffffffffffffff1673ffffffffffffffffffffffffffffffffffffffff16815260200190815260200160002054905092915050565b60008060008373ffffffffffffffffffffffffffffffffffffffff1673ffffffffffffffffffffffffffffffffffffffff168152602001908152602001600020549050919050565b6000813590506104bd8161071d565b92915050565b6000813590506104d281610734565b92915050565b6000602082840312156104ea57600080fd5b60006104f8848285016104ae565b91505092915050565b6000806040838503121561051457600080fd5b6000610522858286016104ae565b9250506020610533858286016104ae565b9150509250929050565b60008060006060848603121561055257600080fd5b6000610560868287016104ae565b9350506020610571868287016104ae565b9250506040610582868287016104c3565b9150509250925092565b6000806040838503121561059f57600080fd5b60006105ad858286016104ae565b92505060206105be858286016104c3565b9150509250929050565b6105d1816106b8565b82525050565b6105e0816106e4565b82525050565b60006020820190506105fb60008301846105c8565b92915050565b600060208201905061061660008301846105d7565b92915050565b6000610627826106e4565b9150610632836106e4565b9250827fffffffffffffffffffffffffffffffffffffffffffffffffffffffffffffffff03821115610667576106666106ee565b5b828201905092915050565b600061067d826106e4565b9150610688836106e4565b92508282101561069b5761069a6106ee565b5b828203905092915050565b60006106b1826106c4565b9050919050565b60008115159050919050565b600073ffffffffffffffffffffffffffffffffffffffff82169050919050565b6000819050919050565b7f4e487b7100000000000000000000000000000000000000000000000000000000600052601160045260246000fd5b610726816106a6565b811461073157600080fd5b50565b61073d816106e4565b811461074857600080fd5b5056fea2646970667358221220af61aac395e64594a3171af59df3bad7a0f1f1cd8ded6fce257ac63ece0d28c464736f6c63430008040033",
  "linkReferences": {},
  "deployedLinkReferences": {}
}