{
  "_format": "hh-sol-artifact-1",
  "contractName": "OneToken",
  "sourceName": "contracts/OneToken.sol",
  "abi": [
    {
      "inputs": [
        {
          "internalType": "uint256",
          "name": "total",
          "type": "uint256"
        },
        {
          "internalType": "address",
          "name": "owner",
          "type": "address"
        }
      ],
      "stateMutability": "nonpayable",
      "type": "constructor"
    },
    {
      "inputs": [
        {
          "internalType": "address",
          "name": "owner",
          "type": "address"
        },
        {
          "internalType": "address",
          "name": "spender",
          "type": "address"
        }
      ],
      "name": "allowance",
      "outputs": [
        {
          "internalType": "uint256",
          "name": "",
          "type": "uint256"
        }
      ],
      "stateMutability": "view",
      "type": "function"
    },
    {
      "inputs": [
        {
          "internalType": "address",
          "name": "spender",
          "type": "address"
        },
        {
          "internalType": "uint256",
          "name": "amount",
          "type": "uint256"
        }
      ],
      "name": "approve",
      "outputs": [
        {
          "internalType": "bool",
          "name": "",
          "type": "bool"
        }
      ],
      "stateMutability": "nonpayable",
      "type": "function"
    },
    {
      "inputs": [
        {
          "internalType": "address",
          "name": "owner",
          "type": "address"
        }
      ],
      "name": "balanceOf",
      "outputs": [
        {
          "internalType": "uint256",
          "name": "",
          "type": "uint256"
        }
      ],
      "stateMutability": "view",
      "type": "function"
    },
    {
      "inputs": [
        {
          "internalType": "address",
          "name": "account",
          "type": "address"
        },
        {
          "internalType": "uint256",
          "name": "amount",
          "type": "uint256"
        }
      ],
      "name": "burn",
      "outputs": [],
      "stateMutability": "nonpayable",
      "type": "function"
    },
    {
      "inputs": [
        {
          "internalType": "address",
          "name": "account",
          "type": "address"
        },
        {
          "internalType": "uint256",
          "name": "amount",
          "type": "uint256"
        }
      ],
      "name": "mint",
      "outputs": [],
      "stateMutability": "nonpayable",
      "type": "function"
    },
    {
      "inputs": [],
      "name": "name",
      "outputs": [
        {
          "internalType": "string",
          "name": "",
          "type": "string"
        }
      ],
      "stateMutability": "view",
      "type": "function"
    },
    {
      "inputs": [],
      "name": "symbol",
      "outputs": [
        {
          "internalType": "string",
          "name": "",
          "type": "string"
        }
      ],
      "stateMutability": "view",
      "type": "function"
    },
    {
      "inputs": [],
      "name": "totalSupply",
      "outputs": [
        {
          "internalType": "uint256",
          "name": "",
          "type": "uint256"
        }
      ],
      "stateMutability": "view",
      "type": "function"
    },
    {
      "inputs": [
        {
          "internalType": "address",
          "name": "to",
          "type": "address"
        },
        {
          "internalType": "uint256",
          "name": "amount",
          "type": "uint256"
        }
      ],
      "name": "transfer",
      "outputs": [
        {
          "internalType": "bool",
          "name": "",
          "type": "bool"
        }
      ],
      "stateMutability": "nonpayable",
      "type": "function"
    },
    {
      "inputs": [
        {
          "internalType": "address",
          "name": "from",
          "type": "address"
        },
        {
          "internalType": "address",
          "name": "to",
          "type": "address"
        },
        {
          "internalType": "uint256",
          "name": "amount",
          "type": "uint256"
        }
      ],
      "name": "transferFrom",
      "outputs": [
        {
          "internalType": "bool",
          "name": "",
          "type": "bool"
        }
      ],
      "stateMutability": "nonpayable",
      "type": "function"
    }
  ],
  "bytecode": "0x60c0604052600960808190526827b732902a37b5b2b760b91b60a09081526200002c9160039190620000fc565b5060408051808201909152600380825262373a3760e91b60209092019182526200005991600491620000fc565b503480156200006757600080fd5b5060405162000bbf38038062000bbf8339810160408190526200008a91620001a2565b60028290556001600160a01b038116620000b657336000908152602081905260409020829055620000d2565b6001600160a01b03811660009081526020819052604090208290555b505060058054336001600160a01b031991821681179092556006805490911690911790556200021c565b8280546200010a90620001df565b90600052602060002090601f0160209004810192826200012e576000855562000179565b82601f106200014957805160ff191683800117855562000179565b8280016001018555821562000179579182015b82811115620001795782518255916020019190600101906200015c565b50620001879291506200018b565b5090565b5b808211156200018757600081556001016200018c565b60008060408385031215620001b5578182fd5b825160208401519092506001600160a01b0381168114620001d4578182fd5b809150509250929050565b600181811c90821680620001f457607f821691505b602082108114156200021657634e487b7160e01b600052602260045260246000fd5b50919050565b610993806200022c6000396000f3fe608060405234801561001057600080fd5b506004361061009e5760003560e01c806370a082311161006657806370a082311461014357806395d89b411461016c5780639dc29fac14610174578063a9059cbb14610187578063dd62ed3e1461019a57600080fd5b806306fdde03146100a3578063095ea7b3146100c157806318160ddd1461010957806323b872dd1461011b57806340c10f191461012e575b600080fd5b6100ab6101d3565b6040516100b8919061088a565b60405180910390f35b6100f96100cf366004610829565b3360009081526001602081815260408084206001600160a01b039690961684529490529290205590565b60405190151581526020016100b8565b6002545b6040519081526020016100b8565b6100f96101293660046107ee565b610261565b61014161013c366004610829565b610568565b005b61010d6101513660046107a2565b6001600160a01b031660009081526020819052604090205490565b6100ab61060c565b610141610182366004610829565b610619565b6100f9610195366004610829565b6106f6565b61010d6101a83660046107bc565b6001600160a01b03918216600090815260016020908152604080832093909416825291909152205490565b600380546101e09061090c565b80601f016020809104026020016040519081016040528092919081815260200182805461020c9061090c565b80156102595780601f1061022e57610100808354040283529160200191610259565b820191906000526020600020905b81548152906001019060200180831161023c57829003601f168201915b505050505081565b60006001600160a01b0384166102ce5760405162461bcd60e51b815260206004820152602760248201527f7a65726f2061646472657373206e6f7420616c6c6f7765642028616464726573604482015266732066726f6d2960c81b60648201526084015b60405180910390fd5b6001600160a01b0383166103325760405162461bcd60e51b815260206004820152602560248201527f7a65726f2061646472657373206e6f7420616c6c6f77656420286164647265736044820152647320746f2960d81b60648201526084016102c5565b6001600160a01b03841660009081526020819052604090205482111561039a5760405162461bcd60e51b815260206004820152601d60248201527f6e6f7420656e6f7567687420746f6b656e73206f6e2062616c616e636500000060448201526064016102c5565b600082116103fb5760405162461bcd60e51b815260206004820152602860248201527f616c6c6f77656420746f207472616e73666572206f6e6c7920706f73697469766044820152671948185b5bdd5b9d60c21b60648201526084016102c5565b604051636eb1769f60e11b81526001600160a01b03808616600483015284166024820152309063dd62ed3e9060440160206040518083038186803b15801561044257600080fd5b505afa158015610456573d6000803e3d6000fd5b505050506040513d601f19601f8201168201806040525081019061047a9190610872565b82106104c85760405162461bcd60e51b815260206004820152601a60248201527f6e6f7420656e6f7567687420616c6c6f77656420746f6b656e7300000000000060448201526064016102c5565b6001600160a01b038416600090815260208190526040812080548492906104f09084906108f5565b90915550506001600160a01b0380851660009081526001602090815260408083209387168352929052908120805484929061052c9084906108f5565b90915550506001600160a01b038316600090815260208190526040812080548492906105599084906108dd565b90915550600195945050505050565b6005546001600160a01b031633146105c25760405162461bcd60e51b815260206004820152601c60248201527f6d696e7420616c6c6f776564206f6e6c7920666f72206d696e7465720000000060448201526064016102c5565b6001600160a01b038216600090815260208190526040812080548392906105ea9084906108dd565b92505081905550806002600082825461060391906108dd565b90915550505050565b600480546101e09061090c565b6006546001600160a01b031633146106735760405162461bcd60e51b815260206004820152601c60248201527f6275726e20616c6c6f776564206f6e6c7920666f72206275726e65720000000060448201526064016102c5565b6001600160a01b0382166000908152602081905260409020548111156106b55760405162461bcd60e51b815260206004820152600060248201526044016102c5565b6001600160a01b038216600090815260208190526040812080548392906106dd9084906108f5565b92505081905550806002600082825461060391906108f5565b6040516323b872dd60e01b81523360048201526001600160a01b03831660248201526044810182905260009030906323b872dd90606401602060405180830381600087803b15801561074757600080fd5b505af115801561075b573d6000803e3d6000fd5b505050506040513d601f19601f8201168201806040525081019061077f9190610852565b9392505050565b80356001600160a01b038116811461079d57600080fd5b919050565b6000602082840312156107b3578081fd5b61077f82610786565b600080604083850312156107ce578081fd5b6107d783610786565b91506107e560208401610786565b90509250929050565b600080600060608486031215610802578081fd5b61080b84610786565b925061081960208501610786565b9150604084013590509250925092565b6000806040838503121561083b578182fd5b61084483610786565b946020939093013593505050565b600060208284031215610863578081fd5b8151801515811461077f578182fd5b600060208284031215610883578081fd5b5051919050565b6000602080835283518082850152825b818110156108b65785810183015185820160400152820161089a565b818111156108c75783604083870101525b50601f01601f1916929092016040019392505050565b600082198211156108f0576108f0610947565b500190565b60008282101561090757610907610947565b500390565b600181811c9082168061092057607f821691505b6020821081141561094157634e487b7160e01b600052602260045260246000fd5b50919050565b634e487b7160e01b600052601160045260246000fdfea264697066735822122056c33f60ed74da8da4359bc9f0a88de3732c4c7ecdb76e49d955782aee83bdc564736f6c63430008040033",
  "linkReferences": {},
  "deployedLinkReferences": {}
}